{
  "contractName": "MyToken",
  "abi": [
    {
      "inputs": [],
      "stateMutability": "nonpayable",
      "type": "constructor"
    },
    {
      "anonymous": false,
      "inputs": [
        {
          "indexed": true,
          "internalType": "address",
          "name": "account",
          "type": "address"
        },
        {
          "indexed": true,
          "internalType": "address",
          "name": "operator",
          "type": "address"
        },
        {
          "indexed": false,
          "internalType": "bool",
          "name": "approved",
          "type": "bool"
        }
      ],
      "name": "ApprovalForAll",
      "type": "event"
    },
    {
      "anonymous": false,
      "inputs": [
        {
          "indexed": true,
          "internalType": "address",
          "name": "previousOwner",
          "type": "address"
        },
        {
          "indexed": true,
          "internalType": "address",
          "name": "newOwner",
          "type": "address"
        }
      ],
      "name": "OwnershipTransferred",
      "type": "event"
    },
    {
      "anonymous": false,
      "inputs": [
        {
          "indexed": true,
          "internalType": "address",
          "name": "operator",
          "type": "address"
        },
        {
          "indexed": true,
          "internalType": "address",
          "name": "from",
          "type": "address"
        },
        {
          "indexed": true,
          "internalType": "address",
          "name": "to",
          "type": "address"
        },
        {
          "indexed": false,
          "internalType": "uint256[]",
          "name": "ids",
          "type": "uint256[]"
        },
        {
          "indexed": false,
          "internalType": "uint256[]",
          "name": "values",
          "type": "uint256[]"
        }
      ],
      "name": "TransferBatch",
      "type": "event"
    },
    {
      "anonymous": false,
      "inputs": [
        {
          "indexed": true,
          "internalType": "address",
          "name": "operator",
          "type": "address"
        },
        {
          "indexed": true,
          "internalType": "address",
          "name": "from",
          "type": "address"
        },
        {
          "indexed": true,
          "internalType": "address",
          "name": "to",
          "type": "address"
        },
        {
          "indexed": false,
          "internalType": "uint256",
          "name": "id",
          "type": "uint256"
        },
        {
          "indexed": false,
          "internalType": "uint256",
          "name": "value",
          "type": "uint256"
        }
      ],
      "name": "TransferSingle",
      "type": "event"
    },
    {
      "anonymous": false,
      "inputs": [
        {
          "indexed": false,
          "internalType": "string",
          "name": "value",
          "type": "string"
        },
        {
          "indexed": true,
          "internalType": "uint256",
          "name": "id",
          "type": "uint256"
        }
      ],
      "name": "URI",
      "type": "event"
    },
    {
      "inputs": [
        {
          "internalType": "address",
          "name": "account",
          "type": "address"
        },
        {
          "internalType": "uint256",
          "name": "id",
          "type": "uint256"
        }
      ],
      "name": "balanceOf",
      "outputs": [
        {
          "internalType": "uint256",
          "name": "",
          "type": "uint256"
        }
      ],
      "stateMutability": "view",
      "type": "function",
      "constant": true
    },
    {
      "inputs": [
        {
          "internalType": "address[]",
          "name": "accounts",
          "type": "address[]"
        },
        {
          "internalType": "uint256[]",
          "name": "ids",
          "type": "uint256[]"
        }
      ],
      "name": "balanceOfBatch",
      "outputs": [
        {
          "internalType": "uint256[]",
          "name": "",
          "type": "uint256[]"
        }
      ],
      "stateMutability": "view",
      "type": "function",
      "constant": true
    },
    {
      "inputs": [
        {
          "internalType": "address",
          "name": "account",
          "type": "address"
        },
        {
          "internalType": "address",
          "name": "operator",
          "type": "address"
        }
      ],
      "name": "isApprovedForAll",
      "outputs": [
        {
          "internalType": "bool",
          "name": "",
          "type": "bool"
        }
      ],
      "stateMutability": "view",
      "type": "function",
      "constant": true
    },
    {
      "inputs": [],
      "name": "owner",
      "outputs": [
        {
          "internalType": "address",
          "name": "",
          "type": "address"
        }
      ],
      "stateMutability": "view",
      "type": "function",
      "constant": true
    },
    {
      "inputs": [],
      "name": "renounceOwnership",
      "outputs": [],
      "stateMutability": "nonpayable",
      "type": "function"
    },
    {
      "inputs": [
        {
          "internalType": "address",
          "name": "from",
          "type": "address"
        },
        {
          "internalType": "address",
          "name": "to",
          "type": "address"
        },
        {
          "internalType": "uint256[]",
          "name": "ids",
          "type": "uint256[]"
        },
        {
          "internalType": "uint256[]",
          "name": "amounts",
          "type": "uint256[]"
        },
        {
          "internalType": "bytes",
          "name": "data",
          "type": "bytes"
        }
      ],
      "name": "safeBatchTransferFrom",
      "outputs": [],
      "stateMutability": "nonpayable",
      "type": "function"
    },
    {
      "inputs": [
        {
          "internalType": "address",
          "name": "from",
          "type": "address"
        },
        {
          "internalType": "address",
          "name": "to",
          "type": "address"
        },
        {
          "internalType": "uint256",
          "name": "id",
          "type": "uint256"
        },
        {
          "internalType": "uint256",
          "name": "amount",
          "type": "uint256"
        },
        {
          "internalType": "bytes",
          "name": "data",
          "type": "bytes"
        }
      ],
      "name": "safeTransferFrom",
      "outputs": [],
      "stateMutability": "nonpayable",
      "type": "function"
    },
    {
      "inputs": [
        {
          "internalType": "address",
          "name": "operator",
          "type": "address"
        },
        {
          "internalType": "bool",
          "name": "approved",
          "type": "bool"
        }
      ],
      "name": "setApprovalForAll",
      "outputs": [],
      "stateMutability": "nonpayable",
      "type": "function"
    },
    {
      "inputs": [
        {
          "internalType": "bytes4",
          "name": "interfaceId",
          "type": "bytes4"
        }
      ],
      "name": "supportsInterface",
      "outputs": [
        {
          "internalType": "bool",
          "name": "",
          "type": "bool"
        }
      ],
      "stateMutability": "view",
      "type": "function",
      "constant": true
    },
    {
      "inputs": [
        {
          "internalType": "address",
          "name": "newOwner",
          "type": "address"
        }
      ],
      "name": "transferOwnership",
      "outputs": [],
      "stateMutability": "nonpayable",
      "type": "function"
    },
    {
      "inputs": [
        {
          "internalType": "uint256",
          "name": "",
          "type": "uint256"
        }
      ],
      "name": "uri",
      "outputs": [
        {
          "internalType": "string",
          "name": "",
          "type": "string"
        }
      ],
      "stateMutability": "view",
      "type": "function",
      "constant": true
    },
    {
      "inputs": [
        {
          "internalType": "string",
          "name": "newuri",
          "type": "string"
        }
      ],
      "name": "setURI",
      "outputs": [],
      "stateMutability": "nonpayable",
      "type": "function"
    },
    {
      "inputs": [],
      "name": "mint",
      "outputs": [],
      "stateMutability": "nonpayable",
      "type": "function"
    }
  ],
  "bytecode": "0x60806040523480156200001157600080fd5b5060405180608001604052806057815260200162003c8c605791396200003d816200008960201b60201c565b506200005e62000052620000a560201b60201c565b620000ad60201b60201c565b620000833360006001604051806020016040528060008152506200017360201b60201c565b62000d71565b8060029080519060200190620000a192919062000626565b5050565b600033905090565b6000600360009054906101000a900473ffffffffffffffffffffffffffffffffffffffff16905081600360006101000a81548173ffffffffffffffffffffffffffffffffffffffff021916908373ffffffffffffffffffffffffffffffffffffffff1602179055508173ffffffffffffffffffffffffffffffffffffffff168173ffffffffffffffffffffffffffffffffffffffff167f8be0079c531659141344cd1fd0a4f28419497f9722a3daafe3b4186f6b6457e060405160405180910390a35050565b600073ffffffffffffffffffffffffffffffffffffffff168473ffffffffffffffffffffffffffffffffffffffff161415620001e6576040517f08c379a0000000000000000000000000000000000000000000000000000000008152600401620001dd90620008fe565b60405180910390fd5b6000620001f8620000a560201b60201c565b9050620002318160008762000213886200033860201b60201c565b62000224886200033860201b60201c565b876200040160201b60201c565b8260008086815260200190815260200160002060008773ffffffffffffffffffffffffffffffffffffffff1673ffffffffffffffffffffffffffffffffffffffff16815260200190815260200160002060008282546200029291906200098f565b925050819055508473ffffffffffffffffffffffffffffffffffffffff16600073ffffffffffffffffffffffffffffffffffffffff168273ffffffffffffffffffffffffffffffffffffffff167fc3d58168c5ae7397731d063d5bbf3d657854427343f4c083240f7aacaa2d0f6287876040516200031292919062000920565b60405180910390a462000331816000878787876200040960201b60201c565b5050505050565b60606000600167ffffffffffffffff8111156200037e577f4e487b7100000000000000000000000000000000000000000000000000000000600052604160045260246000fd5b604051908082528060200260200182016040528015620003ad5781602001602082028036833780820191505090505b5090508281600081518110620003ec577f4e487b7100000000000000000000000000000000000000000000000000000000600052603260045260246000fd5b60200260200101818152505080915050919050565b505050505050565b620004358473ffffffffffffffffffffffffffffffffffffffff166200061360201b62000aae1760201c565b156200060b578373ffffffffffffffffffffffffffffffffffffffff1663f23a6e6187878686866040518663ffffffff1660e01b81526004016200047e95949392919062000832565b602060405180830381600087803b1580156200049957600080fd5b505af1925050508015620004cd57506040513d601f19601f82011682018060405250810190620004ca9190620006ed565b60015b6200057f57620004dc62000b85565b806308c379a01415620005405750620004f462000cb5565b8062000501575062000542565b806040517f08c379a000000000000000000000000000000000000000000000000000000000815260040162000537919062000896565b60405180910390fd5b505b6040517f08c379a00000000000000000000000000000000000000000000000000000000081526004016200057690620008ba565b60405180910390fd5b63f23a6e6160e01b7bffffffffffffffffffffffffffffffffffffffffffffffffffffffff1916817bffffffffffffffffffffffffffffffffffffffffffffffffffffffff19161462000609576040517f08c379a00000000000000000000000000000000000000000000000000000000081526004016200060090620008dc565b60405180910390fd5b505b505050505050565b600080823b905060008111915050919050565b828054620006349062000a8c565b90600052602060002090601f016020900481019282620006585760008555620006a4565b82601f106200067357805160ff1916838001178555620006a4565b82800160010185558215620006a4579182015b82811115620006a357825182559160200191906001019062000686565b5b509050620006b39190620006b7565b5090565b5b80821115620006d2576000816000905550600101620006b8565b5090565b600081519050620006e78162000d57565b92915050565b6000602082840312156200070057600080fd5b60006200071084828501620006d6565b91505092915050565b6200072481620009ec565b82525050565b6000620007378262000957565b6200074381856200096d565b93506200075581856020860162000a56565b620007608162000baa565b840191505092915050565b6000620007788262000962565b6200078481856200097e565b93506200079681856020860162000a56565b620007a18162000baa565b840191505092915050565b6000620007bb6034836200097e565b9150620007c88262000bc8565b604082019050919050565b6000620007e26028836200097e565b9150620007ef8262000c17565b604082019050919050565b6000620008096021836200097e565b9150620008168262000c66565b604082019050919050565b6200082c8162000a4c565b82525050565b600060a08201905062000849600083018862000719565b62000858602083018762000719565b62000867604083018662000821565b62000876606083018562000821565b81810360808301526200088a81846200072a565b90509695505050505050565b60006020820190508181036000830152620008b281846200076b565b905092915050565b60006020820190508181036000830152620008d581620007ac565b9050919050565b60006020820190508181036000830152620008f781620007d3565b9050919050565b600060208201905081810360008301526200091981620007fa565b9050919050565b600060408201905062000937600083018562000821565b62000946602083018462000821565b9392505050565b6000604051905090565b600081519050919050565b600081519050919050565b600082825260208201905092915050565b600082825260208201905092915050565b60006200099c8262000a4c565b9150620009a98362000a4c565b9250827fffffffffffffffffffffffffffffffffffffffffffffffffffffffffffffffff03821115620009e157620009e062000af8565b5b828201905092915050565b6000620009f98262000a2c565b9050919050565b60007fffffffff0000000000000000000000000000000000000000000000000000000082169050919050565b600073ffffffffffffffffffffffffffffffffffffffff82169050919050565b6000819050919050565b60005b8381101562000a7657808201518184015260208101905062000a59565b8381111562000a86576000848401525b50505050565b6000600282049050600182168062000aa557607f821691505b6020821081141562000abc5762000abb62000b27565b5b50919050565b62000acd8262000baa565b810181811067ffffffffffffffff8211171562000aef5762000aee62000b56565b5b80604052505050565b7f4e487b7100000000000000000000000000000000000000000000000000000000600052601160045260246000fd5b7f4e487b7100000000000000000000000000000000000000000000000000000000600052602260045260246000fd5b7f4e487b7100000000000000000000000000000000000000000000000000000000600052604160045260246000fd5b600060033d111562000ba75760046000803e62000ba460005162000bbb565b90505b90565b6000601f19601f8301169050919050565b60008160e01c9050919050565b7f455243313135353a207472616e7366657220746f206e6f6e204552433131353560008201527f526563656976657220696d706c656d656e746572000000000000000000000000602082015250565b7f455243313135353a204552433131353552656365697665722072656a6563746560008201527f6420746f6b656e73000000000000000000000000000000000000000000000000602082015250565b7f455243313135353a206d696e7420746f20746865207a65726f2061646472657360008201527f7300000000000000000000000000000000000000000000000000000000000000602082015250565b600060443d101562000cc75762000d54565b62000cd16200094d565b60043d036004823e80513d602482011167ffffffffffffffff8211171562000cfb57505062000d54565b808201805167ffffffffffffffff81111562000d1b575050505062000d54565b80602083010160043d03850181111562000d3a57505050505062000d54565b62000d4b8260200185018662000ac2565b82955050505050505b90565b62000d628162000a00565b811462000d6e57600080fd5b50565b612f0b8062000d816000396000f3fe608060405234801561001057600080fd5b50600436106100ce5760003560e01c80634e1273f41161008c578063a22cb46511610066578063a22cb465146101fd578063e985e9c514610219578063f242432a14610249578063f2fde38b14610265576100ce565b80634e1273f4146101a5578063715018a6146101d55780638da5cb5b146101df576100ce565b8062fdd58e146100d357806301ffc9a71461010357806302fe5305146101335780630e89341c1461014f5780631249c58b1461017f5780632eb2c2d614610189575b600080fd5b6100ed60048036038101906100e89190611e8b565b610281565b6040516100fa91906125ed565b60405180910390f35b61011d60048036038101906101189190611f33565b61034a565b60405161012a9190612410565b60405180910390f35b61014d60048036038101906101489190611f85565b61042c565b005b61016960048036038101906101649190611fc6565b6104b4565b604051610176919061242b565b60405180910390f35b610187610548565b005b6101a3600480360381019061019e9190611d01565b610567565b005b6101bf60048036038101906101ba9190611ec7565b610608565b6040516101cc91906123b7565b60405180910390f35b6101dd6107b9565b005b6101e7610841565b6040516101f491906122da565b60405180910390f35b61021760048036038101906102129190611e4f565b61086b565b005b610233600480360381019061022e9190611cc5565b610881565b6040516102409190612410565b60405180910390f35b610263600480360381019061025e9190611dc0565b610915565b005b61027f600480360381019061027a9190611c9c565b6109b6565b005b60008073ffffffffffffffffffffffffffffffffffffffff168373ffffffffffffffffffffffffffffffffffffffff1614156102f2576040517f08c379a00000000000000000000000000000000000000000000000000000000081526004016102e99061248d565b60405180910390fd5b60008083815260200190815260200160002060008473ffffffffffffffffffffffffffffffffffffffff1673ffffffffffffffffffffffffffffffffffffffff16815260200190815260200160002054905092915050565b60007fd9b67a26000000000000000000000000000000000000000000000000000000007bffffffffffffffffffffffffffffffffffffffffffffffffffffffff1916827bffffffffffffffffffffffffffffffffffffffffffffffffffffffff1916148061041557507f0e89341c000000000000000000000000000000000000000000000000000000007bffffffffffffffffffffffffffffffffffffffffffffffffffffffff1916827bffffffffffffffffffffffffffffffffffffffffffffffffffffffff1916145b80610425575061042482610ac1565b5b9050919050565b610434610b2b565b73ffffffffffffffffffffffffffffffffffffffff16610452610841565b73ffffffffffffffffffffffffffffffffffffffff16146104a8576040517f08c379a000000000000000000000000000000000000000000000000000000000815260040161049f9061254d565b60405180910390fd5b6104b181610b33565b50565b6060600280546104c39061288d565b80601f01602080910402602001604051908101604052809291908181526020018280546104ef9061288d565b801561053c5780601f106105115761010080835404028352916020019161053c565b820191906000526020600020905b81548152906001019060200180831161051f57829003601f168201915b50505050509050919050565b610565336000600160405180602001604052806000815250610b4d565b565b61056f610b2b565b73ffffffffffffffffffffffffffffffffffffffff168573ffffffffffffffffffffffffffffffffffffffff1614806105b557506105b4856105af610b2b565b610881565b5b6105f4576040517f08c379a00000000000000000000000000000000000000000000000000000000081526004016105eb9061250d565b60405180910390fd5b6106018585858585610ce3565b5050505050565b6060815183511461064e576040517f08c379a00000000000000000000000000000000000000000000000000000000081526004016106459061258d565b60405180910390fd5b6000835167ffffffffffffffff811115610691577f4e487b7100000000000000000000000000000000000000000000000000000000600052604160045260246000fd5b6040519080825280602002602001820160405280156106bf5781602001602082028036833780820191505090505b50905060005b84518110156107ae5761075885828151811061070a577f4e487b7100000000000000000000000000000000000000000000000000000000600052603260045260246000fd5b602002602001015185838151811061074b577f4e487b7100000000000000000000000000000000000000000000000000000000600052603260045260246000fd5b6020026020010151610281565b828281518110610791577f4e487b7100000000000000000000000000000000000000000000000000000000600052603260045260246000fd5b602002602001018181525050806107a7906128f0565b90506106c5565b508091505092915050565b6107c1610b2b565b73ffffffffffffffffffffffffffffffffffffffff166107df610841565b73ffffffffffffffffffffffffffffffffffffffff1614610835576040517f08c379a000000000000000000000000000000000000000000000000000000000815260040161082c9061254d565b60405180910390fd5b61083f6000611043565b565b6000600360009054906101000a900473ffffffffffffffffffffffffffffffffffffffff16905090565b61087d610876610b2b565b8383611109565b5050565b6000600160008473ffffffffffffffffffffffffffffffffffffffff1673ffffffffffffffffffffffffffffffffffffffff16815260200190815260200160002060008373ffffffffffffffffffffffffffffffffffffffff1673ffffffffffffffffffffffffffffffffffffffff16815260200190815260200160002060009054906101000a900460ff16905092915050565b61091d610b2b565b73ffffffffffffffffffffffffffffffffffffffff168573ffffffffffffffffffffffffffffffffffffffff16148061096357506109628561095d610b2b565b610881565b5b6109a2576040517f08c379a0000000000000000000000000000000000000000000000000000000008152600401610999906124cd565b60405180910390fd5b6109af8585858585611276565b5050505050565b6109be610b2b565b73ffffffffffffffffffffffffffffffffffffffff166109dc610841565b73ffffffffffffffffffffffffffffffffffffffff1614610a32576040517f08c379a0000000000000000000000000000000000000000000000000000000008152600401610a299061254d565b60405180910390fd5b600073ffffffffffffffffffffffffffffffffffffffff168173ffffffffffffffffffffffffffffffffffffffff161415610aa2576040517f08c379a0000000000000000000000000000000000000000000000000000000008152600401610a99906124ad565b60405180910390fd5b610aab81611043565b50565b600080823b905060008111915050919050565b60007f01ffc9a7000000000000000000000000000000000000000000000000000000007bffffffffffffffffffffffffffffffffffffffffffffffffffffffff1916827bffffffffffffffffffffffffffffffffffffffffffffffffffffffff1916149050919050565b600033905090565b8060029080519060200190610b49929190611994565b5050565b600073ffffffffffffffffffffffffffffffffffffffff168473ffffffffffffffffffffffffffffffffffffffff161415610bbd576040517f08c379a0000000000000000000000000000000000000000000000000000000008152600401610bb4906125cd565b60405180910390fd5b6000610bc7610b2b565b9050610be881600087610bd9886114f8565b610be2886114f8565b876115be565b8260008086815260200190815260200160002060008773ffffffffffffffffffffffffffffffffffffffff1673ffffffffffffffffffffffffffffffffffffffff1681526020019081526020016000206000828254610c479190612781565b925050819055508473ffffffffffffffffffffffffffffffffffffffff16600073ffffffffffffffffffffffffffffffffffffffff168273ffffffffffffffffffffffffffffffffffffffff167fc3d58168c5ae7397731d063d5bbf3d657854427343f4c083240f7aacaa2d0f628787604051610cc5929190612608565b60405180910390a4610cdc816000878787876115c6565b5050505050565b8151835114610d27576040517f08c379a0000000000000000000000000000000000000000000000000000000008152600401610d1e906125ad565b60405180910390fd5b600073ffffffffffffffffffffffffffffffffffffffff168473ffffffffffffffffffffffffffffffffffffffff161415610d97576040517f08c379a0000000000000000000000000000000000000000000000000000000008152600401610d8e906124ed565b60405180910390fd5b6000610da1610b2b565b9050610db18187878787876115be565b60005b8451811015610fae576000858281518110610df8577f4e487b7100000000000000000000000000000000000000000000000000000000600052603260045260246000fd5b602002602001015190506000858381518110610e3d577f4e487b7100000000000000000000000000000000000000000000000000000000600052603260045260246000fd5b60200260200101519050600080600084815260200190815260200160002060008b73ffffffffffffffffffffffffffffffffffffffff1673ffffffffffffffffffffffffffffffffffffffff16815260200190815260200160002054905081811015610ede576040517f08c379a0000000000000000000000000000000000000000000000000000000008152600401610ed59061252d565b60405180910390fd5b81810360008085815260200190815260200160002060008c73ffffffffffffffffffffffffffffffffffffffff1673ffffffffffffffffffffffffffffffffffffffff168152602001908152602001600020819055508160008085815260200190815260200160002060008b73ffffffffffffffffffffffffffffffffffffffff1673ffffffffffffffffffffffffffffffffffffffff1681526020019081526020016000206000828254610f939190612781565b9250508190555050505080610fa7906128f0565b9050610db4565b508473ffffffffffffffffffffffffffffffffffffffff168673ffffffffffffffffffffffffffffffffffffffff168273ffffffffffffffffffffffffffffffffffffffff167f4a39dc06d4c0dbc64b70af90fd698a233a518aa5d07e595d983b8c0526c8f7fb87876040516110259291906123d9565b60405180910390a461103b8187878787876117ad565b505050505050565b6000600360009054906101000a900473ffffffffffffffffffffffffffffffffffffffff16905081600360006101000a81548173ffffffffffffffffffffffffffffffffffffffff021916908373ffffffffffffffffffffffffffffffffffffffff1602179055508173ffffffffffffffffffffffffffffffffffffffff168173ffffffffffffffffffffffffffffffffffffffff167f8be0079c531659141344cd1fd0a4f28419497f9722a3daafe3b4186f6b6457e060405160405180910390a35050565b8173ffffffffffffffffffffffffffffffffffffffff168373ffffffffffffffffffffffffffffffffffffffff161415611178576040517f08c379a000000000000000000000000000000000000000000000000000000000815260040161116f9061256d565b60405180910390fd5b80600160008573ffffffffffffffffffffffffffffffffffffffff1673ffffffffffffffffffffffffffffffffffffffff16815260200190815260200160002060008473ffffffffffffffffffffffffffffffffffffffff1673ffffffffffffffffffffffffffffffffffffffff16815260200190815260200160002060006101000a81548160ff0219169083151502179055508173ffffffffffffffffffffffffffffffffffffffff168373ffffffffffffffffffffffffffffffffffffffff167f17307eab39ab6107e8899845ad3d59bd9653f200f220920489ca2b5937696c31836040516112699190612410565b60405180910390a3505050565b600073ffffffffffffffffffffffffffffffffffffffff168473ffffffffffffffffffffffffffffffffffffffff1614156112e6576040517f08c379a00000000000000000000000000000000000000000000000000000000081526004016112dd906124ed565b60405180910390fd5b60006112f0610b2b565b9050611310818787611301886114f8565b61130a886114f8565b876115be565b600080600086815260200190815260200160002060008873ffffffffffffffffffffffffffffffffffffffff1673ffffffffffffffffffffffffffffffffffffffff168152602001908152602001600020549050838110156113a7576040517f08c379a000000000000000000000000000000000000000000000000000000000815260040161139e9061252d565b60405180910390fd5b83810360008087815260200190815260200160002060008973ffffffffffffffffffffffffffffffffffffffff1673ffffffffffffffffffffffffffffffffffffffff168152602001908152602001600020819055508360008087815260200190815260200160002060008873ffffffffffffffffffffffffffffffffffffffff1673ffffffffffffffffffffffffffffffffffffffff168152602001908152602001600020600082825461145c9190612781565b925050819055508573ffffffffffffffffffffffffffffffffffffffff168773ffffffffffffffffffffffffffffffffffffffff168373ffffffffffffffffffffffffffffffffffffffff167fc3d58168c5ae7397731d063d5bbf3d657854427343f4c083240f7aacaa2d0f6288886040516114d9929190612608565b60405180910390a46114ef8288888888886115c6565b50505050505050565b60606000600167ffffffffffffffff81111561153d577f4e487b7100000000000000000000000000000000000000000000000000000000600052604160045260246000fd5b60405190808252806020026020018201604052801561156b5781602001602082028036833780820191505090505b50905082816000815181106115a9577f4e487b7100000000000000000000000000000000000000000000000000000000600052603260045260246000fd5b60200260200101818152505080915050919050565b505050505050565b6115e58473ffffffffffffffffffffffffffffffffffffffff16610aae565b156117a5578373ffffffffffffffffffffffffffffffffffffffff1663f23a6e6187878686866040518663ffffffff1660e01b815260040161162b95949392919061235d565b602060405180830381600087803b15801561164557600080fd5b505af192505050801561167657506040513d601f19601f820116820180604052508101906116739190611f5c565b60015b61171c576116826129c6565b806308c379a014156116df5750611697612de3565b806116a257506116e1565b806040517f08c379a00000000000000000000000000000000000000000000000000000000081526004016116d6919061242b565b60405180910390fd5b505b6040517f08c379a00000000000000000000000000000000000000000000000000000000081526004016117139061244d565b60405180910390fd5b63f23a6e6160e01b7bffffffffffffffffffffffffffffffffffffffffffffffffffffffff1916817bffffffffffffffffffffffffffffffffffffffffffffffffffffffff1916146117a3576040517f08c379a000000000000000000000000000000000000000000000000000000000815260040161179a9061246d565b60405180910390fd5b505b505050505050565b6117cc8473ffffffffffffffffffffffffffffffffffffffff16610aae565b1561198c578373ffffffffffffffffffffffffffffffffffffffff1663bc197c8187878686866040518663ffffffff1660e01b81526004016118129594939291906122f5565b602060405180830381600087803b15801561182c57600080fd5b505af192505050801561185d57506040513d601f19601f8201168201806040525081019061185a9190611f5c565b60015b611903576118696129c6565b806308c379a014156118c6575061187e612de3565b8061188957506118c8565b806040517f08c379a00000000000000000000000000000000000000000000000000000000081526004016118bd919061242b565b60405180910390fd5b505b6040517f08c379a00000000000000000000000000000000000000000000000000000000081526004016118fa9061244d565b60405180910390fd5b63bc197c8160e01b7bffffffffffffffffffffffffffffffffffffffffffffffffffffffff1916817bffffffffffffffffffffffffffffffffffffffffffffffffffffffff19161461198a576040517f08c379a00000000000000000000000000000000000000000000000000000000081526004016119819061246d565b60405180910390fd5b505b505050505050565b8280546119a09061288d565b90600052602060002090601f0160209004810192826119c25760008555611a09565b82601f106119db57805160ff1916838001178555611a09565b82800160010185558215611a09579182015b82811115611a085782518255916020019190600101906119ed565b5b509050611a169190611a1a565b5090565b5b80821115611a33576000816000905550600101611a1b565b5090565b6000611a4a611a4584612656565b612631565b90508083825260208201905082856020860282011115611a6957600080fd5b60005b85811015611a995781611a7f8882611b8b565b845260208401935060208301925050600181019050611a6c565b5050509392505050565b6000611ab6611ab184612682565b612631565b90508083825260208201905082856020860282011115611ad557600080fd5b60005b85811015611b055781611aeb8882611c87565b845260208401935060208301925050600181019050611ad8565b5050509392505050565b6000611b22611b1d846126ae565b612631565b905082815260208101848484011115611b3a57600080fd5b611b4584828561284b565b509392505050565b6000611b60611b5b846126df565b612631565b905082815260208101848484011115611b7857600080fd5b611b8384828561284b565b509392505050565b600081359050611b9a81612e79565b92915050565b600082601f830112611bb157600080fd5b8135611bc1848260208601611a37565b91505092915050565b600082601f830112611bdb57600080fd5b8135611beb848260208601611aa3565b91505092915050565b600081359050611c0381612e90565b92915050565b600081359050611c1881612ea7565b92915050565b600081519050611c2d81612ea7565b92915050565b600082601f830112611c4457600080fd5b8135611c54848260208601611b0f565b91505092915050565b600082601f830112611c6e57600080fd5b8135611c7e848260208601611b4d565b91505092915050565b600081359050611c9681612ebe565b92915050565b600060208284031215611cae57600080fd5b6000611cbc84828501611b8b565b91505092915050565b60008060408385031215611cd857600080fd5b6000611ce685828601611b8b565b9250506020611cf785828601611b8b565b9150509250929050565b600080600080600060a08688031215611d1957600080fd5b6000611d2788828901611b8b565b9550506020611d3888828901611b8b565b945050604086013567ffffffffffffffff811115611d5557600080fd5b611d6188828901611bca565b935050606086013567ffffffffffffffff811115611d7e57600080fd5b611d8a88828901611bca565b925050608086013567ffffffffffffffff811115611da757600080fd5b611db388828901611c33565b9150509295509295909350565b600080600080600060a08688031215611dd857600080fd5b6000611de688828901611b8b565b9550506020611df788828901611b8b565b9450506040611e0888828901611c87565b9350506060611e1988828901611c87565b925050608086013567ffffffffffffffff811115611e3657600080fd5b611e4288828901611c33565b9150509295509295909350565b60008060408385031215611e6257600080fd5b6000611e7085828601611b8b565b9250506020611e8185828601611bf4565b9150509250929050565b60008060408385031215611e9e57600080fd5b6000611eac85828601611b8b565b9250506020611ebd85828601611c87565b9150509250929050565b60008060408385031215611eda57600080fd5b600083013567ffffffffffffffff811115611ef457600080fd5b611f0085828601611ba0565b925050602083013567ffffffffffffffff811115611f1d57600080fd5b611f2985828601611bca565b9150509250929050565b600060208284031215611f4557600080fd5b6000611f5384828501611c09565b91505092915050565b600060208284031215611f6e57600080fd5b6000611f7c84828501611c1e565b91505092915050565b600060208284031215611f9757600080fd5b600082013567ffffffffffffffff811115611fb157600080fd5b611fbd84828501611c5d565b91505092915050565b600060208284031215611fd857600080fd5b6000611fe684828501611c87565b91505092915050565b6000611ffb83836122bc565b60208301905092915050565b612010816127d7565b82525050565b600061202182612720565b61202b818561274e565b935061203683612710565b8060005b8381101561206757815161204e8882611fef565b975061205983612741565b92505060018101905061203a565b5085935050505092915050565b61207d816127e9565b82525050565b600061208e8261272b565b612098818561275f565b93506120a881856020860161285a565b6120b1816129e8565b840191505092915050565b60006120c782612736565b6120d18185612770565b93506120e181856020860161285a565b6120ea816129e8565b840191505092915050565b6000612102603483612770565b915061210d82612a06565b604082019050919050565b6000612125602883612770565b915061213082612a55565b604082019050919050565b6000612148602b83612770565b915061215382612aa4565b604082019050919050565b600061216b602683612770565b915061217682612af3565b604082019050919050565b600061218e602983612770565b915061219982612b42565b604082019050919050565b60006121b1602583612770565b91506121bc82612b91565b604082019050919050565b60006121d4603283612770565b91506121df82612be0565b604082019050919050565b60006121f7602a83612770565b915061220282612c2f565b604082019050919050565b600061221a602083612770565b915061222582612c7e565b602082019050919050565b600061223d602983612770565b915061224882612ca7565b604082019050919050565b6000612260602983612770565b915061226b82612cf6565b604082019050919050565b6000612283602883612770565b915061228e82612d45565b604082019050919050565b60006122a6602183612770565b91506122b182612d94565b604082019050919050565b6122c581612841565b82525050565b6122d481612841565b82525050565b60006020820190506122ef6000830184612007565b92915050565b600060a08201905061230a6000830188612007565b6123176020830187612007565b81810360408301526123298186612016565b9050818103606083015261233d8185612016565b905081810360808301526123518184612083565b90509695505050505050565b600060a0820190506123726000830188612007565b61237f6020830187612007565b61238c60408301866122cb565b61239960608301856122cb565b81810360808301526123ab8184612083565b90509695505050505050565b600060208201905081810360008301526123d18184612016565b905092915050565b600060408201905081810360008301526123f38185612016565b905081810360208301526124078184612016565b90509392505050565b60006020820190506124256000830184612074565b92915050565b6000602082019050818103600083015261244581846120bc565b905092915050565b60006020820190508181036000830152612466816120f5565b9050919050565b6000602082019050818103600083015261248681612118565b9050919050565b600060208201905081810360008301526124a68161213b565b9050919050565b600060208201905081810360008301526124c68161215e565b9050919050565b600060208201905081810360008301526124e681612181565b9050919050565b60006020820190508181036000830152612506816121a4565b9050919050565b60006020820190508181036000830152612526816121c7565b9050919050565b60006020820190508181036000830152612546816121ea565b9050919050565b600060208201905081810360008301526125668161220d565b9050919050565b6000602082019050818103600083015261258681612230565b9050919050565b600060208201905081810360008301526125a681612253565b9050919050565b600060208201905081810360008301526125c681612276565b9050919050565b600060208201905081810360008301526125e681612299565b9050919050565b600060208201905061260260008301846122cb565b92915050565b600060408201905061261d60008301856122cb565b61262a60208301846122cb565b9392505050565b600061263b61264c565b905061264782826128bf565b919050565b6000604051905090565b600067ffffffffffffffff82111561267157612670612997565b5b602082029050602081019050919050565b600067ffffffffffffffff82111561269d5761269c612997565b5b602082029050602081019050919050565b600067ffffffffffffffff8211156126c9576126c8612997565b5b6126d2826129e8565b9050602081019050919050565b600067ffffffffffffffff8211156126fa576126f9612997565b5b612703826129e8565b9050602081019050919050565b6000819050602082019050919050565b600081519050919050565b600081519050919050565b600081519050919050565b6000602082019050919050565b600082825260208201905092915050565b600082825260208201905092915050565b600082825260208201905092915050565b600061278c82612841565b915061279783612841565b9250827fffffffffffffffffffffffffffffffffffffffffffffffffffffffffffffffff038211156127cc576127cb612939565b5b828201905092915050565b60006127e282612821565b9050919050565b60008115159050919050565b60007fffffffff0000000000000000000000000000000000000000000000000000000082169050919050565b600073ffffffffffffffffffffffffffffffffffffffff82169050919050565b6000819050919050565b82818337600083830152505050565b60005b8381101561287857808201518184015260208101905061285d565b83811115612887576000848401525b50505050565b600060028204905060018216806128a557607f821691505b602082108114156128b9576128b8612968565b5b50919050565b6128c8826129e8565b810181811067ffffffffffffffff821117156128e7576128e6612997565b5b80604052505050565b60006128fb82612841565b91507fffffffffffffffffffffffffffffffffffffffffffffffffffffffffffffffff82141561292e5761292d612939565b5b600182019050919050565b7f4e487b7100000000000000000000000000000000000000000000000000000000600052601160045260246000fd5b7f4e487b7100000000000000000000000000000000000000000000000000000000600052602260045260246000fd5b7f4e487b7100000000000000000000000000000000000000000000000000000000600052604160045260246000fd5b600060033d11156129e55760046000803e6129e26000516129f9565b90505b90565b6000601f19601f8301169050919050565b60008160e01c9050919050565b7f455243313135353a207472616e7366657220746f206e6f6e204552433131353560008201527f526563656976657220696d706c656d656e746572000000000000000000000000602082015250565b7f455243313135353a204552433131353552656365697665722072656a6563746560008201527f6420746f6b656e73000000000000000000000000000000000000000000000000602082015250565b7f455243313135353a2062616c616e636520717565727920666f7220746865207a60008201527f65726f2061646472657373000000000000000000000000000000000000000000602082015250565b7f4f776e61626c653a206e6577206f776e657220697320746865207a65726f206160008201527f6464726573730000000000000000000000000000000000000000000000000000602082015250565b7f455243313135353a2063616c6c6572206973206e6f74206f776e6572206e6f7260008201527f20617070726f7665640000000000000000000000000000000000000000000000602082015250565b7f455243313135353a207472616e7366657220746f20746865207a65726f20616460008201527f6472657373000000000000000000000000000000000000000000000000000000602082015250565b7f455243313135353a207472616e736665722063616c6c6572206973206e6f742060008201527f6f776e6572206e6f7220617070726f7665640000000000000000000000000000602082015250565b7f455243313135353a20696e73756666696369656e742062616c616e636520666f60008201527f72207472616e7366657200000000000000000000000000000000000000000000602082015250565b7f4f776e61626c653a2063616c6c6572206973206e6f7420746865206f776e6572600082015250565b7f455243313135353a2073657474696e6720617070726f76616c2073746174757360008201527f20666f722073656c660000000000000000000000000000000000000000000000602082015250565b7f455243313135353a206163636f756e747320616e6420696473206c656e67746860008201527f206d69736d617463680000000000000000000000000000000000000000000000602082015250565b7f455243313135353a2069647320616e6420616d6f756e7473206c656e6774682060008201527f6d69736d61746368000000000000000000000000000000000000000000000000602082015250565b7f455243313135353a206d696e7420746f20746865207a65726f2061646472657360008201527f7300000000000000000000000000000000000000000000000000000000000000602082015250565b600060443d1015612df357612e76565b612dfb61264c565b60043d036004823e80513d602482011167ffffffffffffffff82111715612e23575050612e76565b808201805167ffffffffffffffff811115612e415750505050612e76565b80602083010160043d038501811115612e5e575050505050612e76565b612e6d826020018501866128bf565b82955050505050505b90565b612e82816127d7565b8114612e8d57600080fd5b50565b612e99816127e9565b8114612ea457600080fd5b50565b612eb0816127f5565b8114612ebb57600080fd5b50565b612ec781612841565b8114612ed257600080fd5b5056fea2646970667358221220842484d64875e2be8f0d07a48c209d135d80c949f2d138ee81d21e6fb8e8eb5564736f6c6343000802003368747470733a2f2f676174657761792e70696e6174612e636c6f75642f697066732f516d57444b394d707a42545a6a73796f7a467266746b6b446a31686b5079334e4534525772333944436d3966345a2f302e6a736f6e",
  "immutableReferences": {},
  "source": "// SPDX-License-Identifier: MIT\npragma solidity ^0.8.2;\n\nimport \"@openzeppelin/contracts/token/ERC1155/ERC1155.sol\";\nimport \"@openzeppelin/contracts/access/Ownable.sol\";\n\ncontract MyToken is ERC1155, Ownable {\n\n    constructor() ERC1155(\"https://gateway.pinata.cloud/ipfs/QmWDK9MpzBTZjsyozFrftkkDj1hkPy3NE4RWr39DCm9f4Z/0.json\") {\n        _mint(msg.sender, 0, 1, \"\");\n    }\n\n    function setURI(string memory newuri) public onlyOwner {\n        _setURI(newuri);\n    }\n\n    function mint()\n        public\n    {\n        _mint(msg.sender, 0, 1, \"\");\n    }\n\n}\n",
  "sourcePath": "/home/scookie/github/NFTHackST-788a74fe28a5b0bdc6d34237b3d1d5d148c28dfd/contracts/ethereum/MyToken.sol",
  "compiler": {
    "name": "solc",
    "version": "0.8.2+commit.661d1103.Emscripten.clang"
  },
  "schemaVersion": "3.4.3",
  "updatedAt": "2022-01-17T19:31:51.764Z",
  "networkType": "ethereum",
  "devdoc": {
    "kind": "dev",
    "methods": {
      "balanceOf(address,uint256)": {
        "details": "See {IERC1155-balanceOf}. Requirements: - `account` cannot be the zero address."
      },
      "balanceOfBatch(address[],uint256[])": {
        "details": "See {IERC1155-balanceOfBatch}. Requirements: - `accounts` and `ids` must have the same length."
      },
      "isApprovedForAll(address,address)": {
        "details": "See {IERC1155-isApprovedForAll}."
      },
      "owner()": {
        "details": "Returns the address of the current owner."
      },
      "renounceOwnership()": {
        "details": "Leaves the contract without owner. It will not be possible to call `onlyOwner` functions anymore. Can only be called by the current owner. NOTE: Renouncing ownership will leave the contract without an owner, thereby removing any functionality that is only available to the owner."
      },
      "safeBatchTransferFrom(address,address,uint256[],uint256[],bytes)": {
        "details": "See {IERC1155-safeBatchTransferFrom}."
      },
      "safeTransferFrom(address,address,uint256,uint256,bytes)": {
        "details": "See {IERC1155-safeTransferFrom}."
      },
      "setApprovalForAll(address,bool)": {
        "details": "See {IERC1155-setApprovalForAll}."
      },
      "supportsInterface(bytes4)": {
        "details": "See {IERC165-supportsInterface}."
      },
      "transferOwnership(address)": {
        "details": "Transfers ownership of the contract to a new account (`newOwner`). Can only be called by the current owner."
      },
      "uri(uint256)": {
        "details": "See {IERC1155MetadataURI-uri}. This implementation returns the same URI for *all* token types. It relies on the token type ID substitution mechanism https://eips.ethereum.org/EIPS/eip-1155#metadata[defined in the EIP]. Clients calling this function must replace the `\\{id\\}` substring with the actual token type ID."
      }
    },
    "version": 1
  },
  "userdoc": {
    "kind": "user",
    "methods": {},
    "version": 1
  }
}